{
  "contractName": "Factura",
  "abi": [
    {
      "inputs": [
        {
          "internalType": "address",
          "name": "_cliente",
          "type": "address"
        },
        {
          "internalType": "uint256",
          "name": "_montoTotal",
          "type": "uint256"
        },
        {
          "internalType": "uint256",
          "name": "_fechaVencimiento",
          "type": "uint256"
        }
      ],
      "stateMutability": "nonpayable",
      "type": "constructor"
    },
    {
      "inputs": [],
      "name": "cliente",
      "outputs": [
        {
          "internalType": "address",
          "name": "",
          "type": "address"
        }
      ],
      "stateMutability": "view",
      "type": "function"
    },
    {
      "inputs": [],
      "name": "contratista",
      "outputs": [
        {
          "internalType": "address payable",
          "name": "",
          "type": "address"
        }
      ],
      "stateMutability": "view",
      "type": "function"
    },
    {
      "inputs": [],
      "name": "fechaVencimiento",
      "outputs": [
        {
          "internalType": "uint256",
          "name": "",
          "type": "uint256"
        }
      ],
      "stateMutability": "view",
      "type": "function"
    },
    {
      "inputs": [],
      "name": "montoTotal",
      "outputs": [
        {
          "internalType": "uint256",
          "name": "",
          "type": "uint256"
        }
      ],
      "stateMutability": "view",
      "type": "function"
    },
    {
      "inputs": [],
      "name": "pagada",
      "outputs": [
        {
          "internalType": "bool",
          "name": "",
          "type": "bool"
        }
      ],
      "stateMutability": "view",
      "type": "function"
    },
    {
      "inputs": [],
      "name": "pagar",
      "outputs": [],
      "stateMutability": "payable",
      "type": "function"
    },
    {
      "inputs": [],
      "name": "esAtrasada",
      "outputs": [
        {
          "internalType": "bool",
          "name": "",
          "type": "bool"
        }
      ],
      "stateMutability": "view",
      "type": "function"
    }
  ],
  "bytecode": "0x608060405234801561001057600080fd5b5060405161086f38038061086f8339818101604052810190610032919061017d565b336000806101000a81548173ffffffffffffffffffffffffffffffffffffffff021916908373ffffffffffffffffffffffffffffffffffffffff16021790555082600160006101000a81548173ffffffffffffffffffffffffffffffffffffffff021916908373ffffffffffffffffffffffffffffffffffffffff16021790555081600281905550806003819055506000600460006101000a81548160ff0219169083151502179055505050506101d0565b600080fd5b600073ffffffffffffffffffffffffffffffffffffffff82169050919050565b6000610114826100e9565b9050919050565b61012481610109565b811461012f57600080fd5b50565b6000815190506101418161011b565b92915050565b6000819050919050565b61015a81610147565b811461016557600080fd5b50565b60008151905061017781610151565b92915050565b600080600060608486031215610196576101956100e4565b5b60006101a486828701610132565b93505060206101b586828701610168565b92505060406101c686828701610168565b9150509250925092565b610690806101df6000396000f3fe6080604052600436106100705760003560e01c806391d641a41161004e57806391d641a4146100f6578063a5592be514610121578063e1c4527b1461014c578063e5dff5941461017757610070565b8063332599411461007557806333d020fc146100a05780635370c7ee146100cb575b600080fd5b34801561008157600080fd5b5061008a610181565b60405161009791906103f8565b60405180910390f35b3480156100ac57600080fd5b506100b56101a7565b6040516100c2919061042c565b60405180910390f35b3480156100d757600080fd5b506100e06101ad565b6040516100ed9190610468565b60405180910390f35b34801561010257600080fd5b5061010b6101d1565b604051610118919061049e565b60405180910390f35b34801561012d57600080fd5b506101366101f6565b604051610143919061049e565b60405180910390f35b34801561015857600080fd5b50610161610209565b60405161016e919061042c565b60405180910390f35b61017f61020f565b005b600160009054906101000a900473ffffffffffffffffffffffffffffffffffffffff1681565b60035481565b60008054906101000a900473ffffffffffffffffffffffffffffffffffffffff1681565b6000600354421180156101f15750600460009054906101000a900460ff16155b905090565b600460009054906101000a900460ff1681565b60025481565b600160009054906101000a900473ffffffffffffffffffffffffffffffffffffffff1673ffffffffffffffffffffffffffffffffffffffff163373ffffffffffffffffffffffffffffffffffffffff161461029f576040517f08c379a00000000000000000000000000000000000000000000000000000000081526004016102969061053c565b60405180910390fd5b60025434146102e3576040517f08c379a00000000000000000000000000000000000000000000000000000000081526004016102da906105ce565b60405180910390fd5b600460009054906101000a900460ff1615610333576040517f08c379a000000000000000000000000000000000000000000000000000000000815260040161032a9061063a565b60405180910390fd5b60008054906101000a900473ffffffffffffffffffffffffffffffffffffffff1673ffffffffffffffffffffffffffffffffffffffff166108fc349081150290604051600060405180830381858888f19350505050158015610399573d6000803e3d6000fd5b506001600460006101000a81548160ff021916908315150217905550565b600073ffffffffffffffffffffffffffffffffffffffff82169050919050565b60006103e2826103b7565b9050919050565b6103f2816103d7565b82525050565b600060208201905061040d60008301846103e9565b92915050565b6000819050919050565b61042681610413565b82525050565b6000602082019050610441600083018461041d565b92915050565b6000610452826103b7565b9050919050565b61046281610447565b82525050565b600060208201905061047d6000830184610459565b92915050565b60008115159050919050565b61049881610483565b82525050565b60006020820190506104b3600083018461048f565b92915050565b600082825260208201905092915050565b7f536f6c6f20656c20636c69656e7465207075656465207061676172206c61206660008201527f6163747572610000000000000000000000000000000000000000000000000000602082015250565b60006105266026836104b9565b9150610531826104ca565b604082019050919050565b6000602082019050818103600083015261055581610519565b9050919050565b7f456c206d6f6e746f20656e766961646f20646562652073657220696775616c2060008201527f616c206d6f6e746f20746f74616c206465206c61206661637475726100000000602082015250565b60006105b8603c836104b9565b91506105c38261055c565b604082019050919050565b600060208201905081810360008301526105e7816105ab565b9050919050565b7f4c612066616374757261207961206861207369646f2070616761646100000000600082015250565b6000610624601c836104b9565b915061062f826105ee565b602082019050919050565b6000602082019050818103600083015261065381610617565b905091905056fea264697066735822122009b085107891cf072b98979424e76710cca8a55b83595143b2980c7b90e92b3664736f6c63430008130033",
  "immutableReferences": {},
  "source": "// SPDX-License-Identifier: MIT\r\npragma solidity ^0.8.0;\r\n\r\ncontract Factura {\r\n    address payable public contratista;\r\n    address public cliente;\r\n    uint public montoTotal;\r\n    uint public fechaVencimiento;\r\n    bool public pagada;\r\n    \r\n    constructor(address _cliente, uint _montoTotal, uint _fechaVencimiento) {\r\n        contratista = payable(msg.sender);\r\n        cliente = _cliente;\r\n        montoTotal = _montoTotal;\r\n        fechaVencimiento = _fechaVencimiento;\r\n        pagada = false;\r\n    }\r\n    \r\n    function pagar() public payable {\r\n        require(msg.sender == cliente, \"Solo el cliente puede pagar la factura\");\r\n        require(msg.value == montoTotal, \"El monto enviado debe ser igual al monto total de la factura\");\r\n        require(!pagada, \"La factura ya ha sido pagada\");\r\n        \r\n        contratista.transfer(msg.value);\r\n        pagada = true;\r\n    }\r\n    \r\n    function esAtrasada() public view returns(bool) {\r\n        return block.timestamp > fechaVencimiento && !pagada;\r\n    }\r\n}\r\n",
  "sourcePath": "C:\\Users\\ctorrubiano\\Projects\\web3-payment-app\\truffle\\contracts\\Factura.sol",
  "compiler": {
    "name": "solc",
    "version": "0.8.19+commit.7dd6d404.Emscripten.clang"
  },
  "schemaVersion": "3.4.13",
  "updatedAt": "2023-04-17T16:32:18.683Z",
  "devdoc": {
    "kind": "dev",
    "methods": {},
    "version": 1
  },
  "userdoc": {
    "kind": "user",
    "methods": {},
    "version": 1
  }
}