{
  "contractName": "Invoice",
  "abi": [
    {
      "inputs": [
        {
          "internalType": "address",
          "name": "_client",
          "type": "address"
        },
        {
          "internalType": "string",
          "name": "_articles",
          "type": "string"
        },
        {
          "internalType": "uint256",
          "name": "_total",
          "type": "uint256"
        },
        {
          "internalType": "uint256",
          "name": "_dueDate",
          "type": "uint256"
        },
        {
          "internalType": "string",
          "name": "_message",
          "type": "string"
        },
        {
          "internalType": "string",
          "name": "_discount",
          "type": "string"
        },
        {
          "internalType": "string",
          "name": "_otherImport",
          "type": "string"
        }
      ],
      "stateMutability": "nonpayable",
      "type": "constructor"
    },
    {
      "inputs": [],
      "name": "pay",
      "outputs": [],
      "stateMutability": "payable",
      "type": "function"
    },
    {
      "inputs": [],
      "name": "isOverdue",
      "outputs": [
        {
          "internalType": "bool",
          "name": "",
          "type": "bool"
        }
      ],
      "stateMutability": "view",
      "type": "function"
    },
    {
      "inputs": [],
      "name": "getInfo",
      "outputs": [
        {
          "internalType": "address",
          "name": "",
          "type": "address"
        },
        {
          "internalType": "address",
          "name": "",
          "type": "address"
        },
        {
          "internalType": "string",
          "name": "",
          "type": "string"
        },
        {
          "internalType": "uint256",
          "name": "",
          "type": "uint256"
        },
        {
          "internalType": "string",
          "name": "",
          "type": "string"
        },
        {
          "internalType": "uint256",
          "name": "",
          "type": "uint256"
        },
        {
          "internalType": "string",
          "name": "",
          "type": "string"
        },
        {
          "internalType": "string",
          "name": "",
          "type": "string"
        }
      ],
      "stateMutability": "view",
      "type": "function"
    }
  ],
  "bytecode": "0x60806040523480156200001157600080fd5b506040516200134b3803806200134b833981810160405281019062000037919062000369565b336000806101000a81548173ffffffffffffffffffffffffffffffffffffffff021916908373ffffffffffffffffffffffffffffffffffffffff16021790555086600160006101000a81548173ffffffffffffffffffffffffffffffffffffffff021916908373ffffffffffffffffffffffffffffffffffffffff1602179055508560029081620000c99190620006d9565b50846003819055508260049081620000e29190620006d9565b50836005819055508160069081620000fb9190620006d9565b5080600790816200010d9190620006d9565b506000600860006101000a81548160ff02191690831515021790555050505050505050620007c0565b6000604051905090565b600080fd5b600080fd5b600073ffffffffffffffffffffffffffffffffffffffff82169050919050565b600062000177826200014a565b9050919050565b62000189816200016a565b81146200019557600080fd5b50565b600081519050620001a9816200017e565b92915050565b600080fd5b600080fd5b6000601f19601f8301169050919050565b7f4e487b7100000000000000000000000000000000000000000000000000000000600052604160045260246000fd5b6200020482620001b9565b810181811067ffffffffffffffff82111715620002265762000225620001ca565b5b80604052505050565b60006200023b62000136565b9050620002498282620001f9565b919050565b600067ffffffffffffffff8211156200026c576200026b620001ca565b5b6200027782620001b9565b9050602081019050919050565b60005b83811015620002a457808201518184015260208101905062000287565b60008484015250505050565b6000620002c7620002c1846200024e565b6200022f565b905082815260208101848484011115620002e657620002e5620001b4565b5b620002f384828562000284565b509392505050565b600082601f830112620003135762000312620001af565b5b815162000325848260208601620002b0565b91505092915050565b6000819050919050565b62000343816200032e565b81146200034f57600080fd5b50565b600081519050620003638162000338565b92915050565b600080600080600080600060e0888a0312156200038b576200038a62000140565b5b60006200039b8a828b0162000198565b975050602088015167ffffffffffffffff811115620003bf57620003be62000145565b5b620003cd8a828b01620002fb565b9650506040620003e08a828b0162000352565b9550506060620003f38a828b0162000352565b945050608088015167ffffffffffffffff81111562000417576200041662000145565b5b620004258a828b01620002fb565b93505060a088015167ffffffffffffffff81111562000449576200044862000145565b5b620004578a828b01620002fb565b92505060c088015167ffffffffffffffff8111156200047b576200047a62000145565b5b620004898a828b01620002fb565b91505092959891949750929550565b600081519050919050565b7f4e487b7100000000000000000000000000000000000000000000000000000000600052602260045260246000fd5b60006002820490506001821680620004eb57607f821691505b602082108103620005015762000500620004a3565b5b50919050565b60008190508160005260206000209050919050565b60006020601f8301049050919050565b600082821b905092915050565b6000600883026200056b7fffffffffffffffffffffffffffffffffffffffffffffffffffffffffffffffff826200052c565b6200057786836200052c565b95508019841693508086168417925050509392505050565b6000819050919050565b6000620005ba620005b4620005ae846200032e565b6200058f565b6200032e565b9050919050565b6000819050919050565b620005d68362000599565b620005ee620005e582620005c1565b84845462000539565b825550505050565b600090565b62000605620005f6565b62000612818484620005cb565b505050565b5b818110156200063a576200062e600082620005fb565b60018101905062000618565b5050565b601f8211156200068957620006538162000507565b6200065e846200051c565b810160208510156200066e578190505b620006866200067d856200051c565b83018262000617565b50505b505050565b600082821c905092915050565b6000620006ae600019846008026200068e565b1980831691505092915050565b6000620006c983836200069b565b9150826002028217905092915050565b620006e48262000498565b67ffffffffffffffff8111156200070057620006ff620001ca565b5b6200070c8254620004d2565b620007198282856200063e565b600060209050601f8311600181146200075157600084156200073c578287015190505b620007488582620006bb565b865550620007b8565b601f198416620007618662000507565b60005b828110156200078b5784890151825560018201915060208501945060208101905062000764565b86831015620007ab5784890151620007a7601f8916826200069b565b8355505b6001600288020188555050505b505050505050565b610b7b80620007d06000396000f3fe6080604052600436106100345760003560e01c80631b9265b8146100395780633b957317146100435780635a9b0b891461006e575b600080fd5b6100416100a0565b005b34801561004f57600080fd5b50610058610248565b60405161006591906106fe565b60405180910390f35b34801561007a57600080fd5b50610083610353565b604051610097989796959493929190610803565b60405180910390f35b600160009054906101000a900473ffffffffffffffffffffffffffffffffffffffff1673ffffffffffffffffffffffffffffffffffffffff163373ffffffffffffffffffffffffffffffffffffffff1614610130576040517f08c379a00000000000000000000000000000000000000000000000000000000081526004016101279061090f565b60405180910390fd5b6003543414610174576040517f08c379a000000000000000000000000000000000000000000000000000000000815260040161016b906109a1565b60405180910390fd5b600860009054906101000a900460ff16156101c4576040517f08c379a00000000000000000000000000000000000000000000000000000000081526004016101bb90610a0d565b60405180910390fd5b60008054906101000a900473ffffffffffffffffffffffffffffffffffffffff1673ffffffffffffffffffffffffffffffffffffffff166108fc349081150290604051600060405180830381858888f1935050505015801561022a573d6000803e3d6000fd5b506001600860006101000a81548160ff021916908315150217905550565b6000600160009054906101000a900473ffffffffffffffffffffffffffffffffffffffff1673ffffffffffffffffffffffffffffffffffffffff163373ffffffffffffffffffffffffffffffffffffffff1614806102f1575060008054906101000a900473ffffffffffffffffffffffffffffffffffffffff1673ffffffffffffffffffffffffffffffffffffffff163373ffffffffffffffffffffffffffffffffffffffff16145b610330576040517f08c379a000000000000000000000000000000000000000000000000000000000815260040161032790610ac5565b60405180910390fd5b6005544211801561034e5750600860009054906101000a900460ff16155b905090565b6000806060600060606000606080600160009054906101000a900473ffffffffffffffffffffffffffffffffffffffff1673ffffffffffffffffffffffffffffffffffffffff163373ffffffffffffffffffffffffffffffffffffffff161480610408575060008054906101000a900473ffffffffffffffffffffffffffffffffffffffff1673ffffffffffffffffffffffffffffffffffffffff163373ffffffffffffffffffffffffffffffffffffffff16145b610447576040517f08c379a000000000000000000000000000000000000000000000000000000000815260040161043e90610ac5565b60405180910390fd5b60008054906101000a900473ffffffffffffffffffffffffffffffffffffffff16600160009054906101000a900473ffffffffffffffffffffffffffffffffffffffff1660026003546004600554600660078580546104a590610b14565b80601f01602080910402602001604051908101604052809291908181526020018280546104d190610b14565b801561051e5780601f106104f35761010080835404028352916020019161051e565b820191906000526020600020905b81548152906001019060200180831161050157829003601f168201915b5050505050955083805461053190610b14565b80601f016020809104026020016040519081016040528092919081815260200182805461055d90610b14565b80156105aa5780601f1061057f576101008083540402835291602001916105aa565b820191906000526020600020905b81548152906001019060200180831161058d57829003601f168201915b505050505093508180546105bd90610b14565b80601f01602080910402602001604051908101604052809291908181526020018280546105e990610b14565b80156106365780601f1061060b57610100808354040283529160200191610636565b820191906000526020600020905b81548152906001019060200180831161061957829003601f168201915b5050505050915080805461064990610b14565b80601f016020809104026020016040519081016040528092919081815260200182805461067590610b14565b80156106c25780601f10610697576101008083540402835291602001916106c2565b820191906000526020600020905b8154815290600101906020018083116106a557829003601f168201915b50505050509050975097509750975097509750975097509091929394959697565b60008115159050919050565b6106f8816106e3565b82525050565b600060208201905061071360008301846106ef565b92915050565b600073ffffffffffffffffffffffffffffffffffffffff82169050919050565b600061074482610719565b9050919050565b61075481610739565b82525050565b600081519050919050565b600082825260208201905092915050565b60005b83811015610794578082015181840152602081019050610779565b60008484015250505050565b6000601f19601f8301169050919050565b60006107bc8261075a565b6107c68185610765565b93506107d6818560208601610776565b6107df816107a0565b840191505092915050565b6000819050919050565b6107fd816107ea565b82525050565b600061010082019050610819600083018b61074b565b610826602083018a61074b565b818103604083015261083881896107b1565b905061084760608301886107f4565b818103608083015261085981876107b1565b905061086860a08301866107f4565b81810360c083015261087a81856107b1565b905081810360e083015261088e81846107b1565b90509998505050505050505050565b7f536f6c6f20656c20636c69656e7465207075656465207061676172206c61206660008201527f6163747572610000000000000000000000000000000000000000000000000000602082015250565b60006108f9602683610765565b91506109048261089d565b604082019050919050565b60006020820190508181036000830152610928816108ec565b9050919050565b7f456c206d6f6e746f20656e766961646f20646562652073657220696775616c2060008201527f616c206d6f6e746f20746f74616c206465206c61206661637475726100000000602082015250565b600061098b603c83610765565b91506109968261092f565b604082019050919050565b600060208201905081810360008301526109ba8161097e565b9050919050565b7f4c612066616374757261207961206861207369646f2070616761646100000000600082015250565b60006109f7601c83610765565b9150610a02826109c1565b602082019050919050565b60006020820190508181036000830152610a26816109ea565b9050919050565b7f536f6c6f206c61732070617274657320696d706c69636164617320707565646560008201527f73206f6274656e6572206c6f73206461746f73206465206c612066616374757260208201527f6100000000000000000000000000000000000000000000000000000000000000604082015250565b6000610aaf604183610765565b9150610aba82610a2d565b606082019050919050565b60006020820190508181036000830152610ade81610aa2565b9050919050565b7f4e487b7100000000000000000000000000000000000000000000000000000000600052602260045260246000fd5b60006002820490506001821680610b2c57607f821691505b602082108103610b3f57610b3e610ae5565b5b5091905056fea2646970667358221220259b417a43608ad01a1c7e9056d740976cbbc1c5651d01062025fddcdfa9630864736f6c63430008130033",
  "immutableReferences": {},
  "source": "// SPDX-License-Identifier: MIT\r\npragma solidity ^0.8.0;\r\n\r\ncontract Invoice {\r\n    address payable private contractor;\r\n    address private client;\r\n    string private articles;\r\n    uint256 private total;\r\n    string private message;\r\n    uint private dueDate;\r\n    string private discount;\r\n    string private otherImport;\r\n    bool private isPaid;\r\n\r\n    constructor(address _client, string memory _articles, uint256 _total, uint _dueDate, string memory _message, string memory _discount, string memory _otherImport) {\r\n        contractor = payable(msg.sender);\r\n        client = _client;\r\n        articles = _articles;\r\n        total = _total;\r\n        message = _message;\r\n        dueDate = _dueDate;\r\n        discount = _discount;\r\n        otherImport = _otherImport;\r\n        isPaid = false;\r\n    }\r\n    \r\n    function pay() public payable {\r\n        require(msg.sender == client, \"Solo el cliente puede pagar la factura\");\r\n        require(msg.value == total, \"El monto enviado debe ser igual al monto total de la factura\");\r\n        require(!isPaid, \"La factura ya ha sido pagada\");\r\n        \r\n        contractor.transfer(msg.value);\r\n        isPaid = true;\r\n    }\r\n    \r\n    function isOverdue() public view returns(bool) {\r\n        require(msg.sender == client || msg.sender == contractor, \"Solo las partes implicadas puedes obtener los datos de la factura\");\r\n        return block.timestamp > dueDate && !isPaid;\r\n    }\r\n    \r\n    function getInfo() public view returns (address, address, string memory, uint256, string memory, uint, string memory, string memory) {\r\n        require(msg.sender == client || msg.sender == contractor, \"Solo las partes implicadas puedes obtener los datos de la factura\");\r\n        return (contractor, client, articles, total, message, dueDate, discount, otherImport);\r\n    }\r\n}\r\n",
  "sourcePath": "C:\\Users\\ctorrubiano\\Projects\\web3-payment-app\\truffle\\contracts\\Invoice.sol",
  "compiler": {
    "name": "solc",
    "version": "0.8.19+commit.7dd6d404.Emscripten.clang"
  },
  "schemaVersion": "3.4.13",
  "updatedAt": "2023-05-01T09:59:48.715Z",
  "devdoc": {
    "kind": "dev",
    "methods": {},
    "version": 1
  },
  "userdoc": {
    "kind": "user",
    "methods": {},
    "version": 1
  }
}