{
  "contractName": "Invoices",
  "abi": [
    {
      "inputs": [
        {
          "internalType": "address",
          "name": "",
          "type": "address"
        },
        {
          "internalType": "uint256",
          "name": "",
          "type": "uint256"
        }
      ],
      "name": "invoices",
      "outputs": [
        {
          "internalType": "string",
          "name": "",
          "type": "string"
        }
      ],
      "stateMutability": "view",
      "type": "function",
      "constant": true
    },
    {
      "inputs": [
        {
          "internalType": "address",
          "name": "_payAddress",
          "type": "address"
        },
        {
          "internalType": "string",
          "name": "_contractAddress",
          "type": "string"
        }
      ],
      "name": "insertInvoice",
      "outputs": [],
      "stateMutability": "nonpayable",
      "type": "function"
    },
    {
      "inputs": [
        {
          "internalType": "address",
          "name": "_payAddress",
          "type": "address"
        }
      ],
      "name": "getUserInvoices",
      "outputs": [
        {
          "internalType": "string[]",
          "name": "",
          "type": "string[]"
        }
      ],
      "stateMutability": "view",
      "type": "function",
      "constant": true
    },
    {
      "inputs": [
        {
          "internalType": "address",
          "name": "_payAddress",
          "type": "address"
        },
        {
          "internalType": "uint256",
          "name": "_index",
          "type": "uint256"
        }
      ],
      "name": "deleteUserInvoice",
      "outputs": [],
      "stateMutability": "nonpayable",
      "type": "function"
    }
  ],
  "bytecode": "0x608060405234801561001057600080fd5b50610f27806100206000396000f3fe608060405234801561001057600080fd5b506004361061004c5760003560e01c80630dad62fa1461005157806324d3b3e214610081578063a9c6f82a146100b1578063bd743a39146100cd575b600080fd5b61006b600480360381019061006691906105e5565b6100e9565b60405161007891906106b5565b60405180910390f35b61009b600480360381019061009691906106d7565b6101a2565b6040516100a89190610810565b60405180910390f35b6100cb60048036038101906100c691906105e5565b6102b9565b005b6100e760048036038101906100e29190610967565b61046b565b005b6000602052816000526040600020818154811061010557600080fd5b90600052602060002001600091509150508054610121906109f2565b80601f016020809104026020016040519081016040528092919081815260200182805461014d906109f2565b801561019a5780601f1061016f5761010080835404028352916020019161019a565b820191906000526020600020905b81548152906001019060200180831161017d57829003601f168201915b505050505081565b60606000808373ffffffffffffffffffffffffffffffffffffffff1673ffffffffffffffffffffffffffffffffffffffff168152602001908152602001600020805480602002602001604051908101604052809291908181526020016000905b828210156102ae578382906000526020600020018054610221906109f2565b80601f016020809104026020016040519081016040528092919081815260200182805461024d906109f2565b801561029a5780601f1061026f5761010080835404028352916020019161029a565b820191906000526020600020905b81548152906001019060200180831161027d57829003601f168201915b505050505081526020019060010190610202565b505050509050919050565b60008060008473ffffffffffffffffffffffffffffffffffffffff1673ffffffffffffffffffffffffffffffffffffffff16815260200190815260200160002080549050905060008290505b6001826103129190610a52565b8110156103f9576000808573ffffffffffffffffffffffffffffffffffffffff1673ffffffffffffffffffffffffffffffffffffffff1681526020019081526020016000206001826103649190610a86565b8154811061037557610374610aba565b5b906000526020600020016000808673ffffffffffffffffffffffffffffffffffffffff1673ffffffffffffffffffffffffffffffffffffffff16815260200190815260200160002082815481106103cf576103ce610aba565b5b9060005260206000200190816103e59190610cc0565b5080806103f190610da8565b915050610305565b506000808473ffffffffffffffffffffffffffffffffffffffff1673ffffffffffffffffffffffffffffffffffffffff16815260200190815260200160002080548061044857610447610df0565b5b60019003818190600052602060002001600061046491906104e0565b9055505050565b6000808373ffffffffffffffffffffffffffffffffffffffff1673ffffffffffffffffffffffffffffffffffffffff168152602001908152602001600020819080600181540180825580915050600190039060005260206000200160009091909190915090816104db9190610e1f565b505050565b5080546104ec906109f2565b6000825580601f106104fe575061051d565b601f01602090049060005260206000209081019061051c9190610520565b5b50565b5b80821115610539576000816000905550600101610521565b5090565b6000604051905090565b600080fd5b600080fd5b600073ffffffffffffffffffffffffffffffffffffffff82169050919050565b600061057c82610551565b9050919050565b61058c81610571565b811461059757600080fd5b50565b6000813590506105a981610583565b92915050565b6000819050919050565b6105c2816105af565b81146105cd57600080fd5b50565b6000813590506105df816105b9565b92915050565b600080604083850312156105fc576105fb610547565b5b600061060a8582860161059a565b925050602061061b858286016105d0565b9150509250929050565b600081519050919050565b600082825260208201905092915050565b60005b8381101561065f578082015181840152602081019050610644565b60008484015250505050565b6000601f19601f8301169050919050565b600061068782610625565b6106918185610630565b93506106a1818560208601610641565b6106aa8161066b565b840191505092915050565b600060208201905081810360008301526106cf818461067c565b905092915050565b6000602082840312156106ed576106ec610547565b5b60006106fb8482850161059a565b91505092915050565b600081519050919050565b600082825260208201905092915050565b6000819050602082019050919050565b600082825260208201905092915050565b600061074c82610625565b6107568185610730565b9350610766818560208601610641565b61076f8161066b565b840191505092915050565b60006107868383610741565b905092915050565b6000602082019050919050565b60006107a682610704565b6107b0818561070f565b9350836020820285016107c285610720565b8060005b858110156107fe57848403895281516107df858261077a565b94506107ea8361078e565b925060208a019950506001810190506107c6565b50829750879550505050505092915050565b6000602082019050818103600083015261082a818461079b565b905092915050565b600080fd5b600080fd5b7f4e487b7100000000000000000000000000000000000000000000000000000000600052604160045260246000fd5b6108748261066b565b810181811067ffffffffffffffff821117156108935761089261083c565b5b80604052505050565b60006108a661053d565b90506108b2828261086b565b919050565b600067ffffffffffffffff8211156108d2576108d161083c565b5b6108db8261066b565b9050602081019050919050565b82818337600083830152505050565b600061090a610905846108b7565b61089c565b90508281526020810184848401111561092657610925610837565b5b6109318482856108e8565b509392505050565b600082601f83011261094e5761094d610832565b5b813561095e8482602086016108f7565b91505092915050565b6000806040838503121561097e5761097d610547565b5b600061098c8582860161059a565b925050602083013567ffffffffffffffff8111156109ad576109ac61054c565b5b6109b985828601610939565b9150509250929050565b7f4e487b7100000000000000000000000000000000000000000000000000000000600052602260045260246000fd5b60006002820490506001821680610a0a57607f821691505b602082108103610a1d57610a1c6109c3565b5b50919050565b7f4e487b7100000000000000000000000000000000000000000000000000000000600052601160045260246000fd5b6000610a5d826105af565b9150610a68836105af565b9250828203905081811115610a8057610a7f610a23565b5b92915050565b6000610a91826105af565b9150610a9c836105af565b9250828201905080821115610ab457610ab3610a23565b5b92915050565b7f4e487b7100000000000000000000000000000000000000000000000000000000600052603260045260246000fd5b600081549050610af8816109f2565b9050919050565b60008190508160005260206000209050919050565b60008190508160005260206000209050919050565b60006020601f8301049050919050565b600082821b905092915050565b600060088302610b767fffffffffffffffffffffffffffffffffffffffffffffffffffffffffffffffff82610b39565b610b808683610b39565b95508019841693508086168417925050509392505050565b6000819050919050565b6000610bbd610bb8610bb3846105af565b610b98565b6105af565b9050919050565b6000819050919050565b610bd783610ba2565b610beb610be382610bc4565b848454610b46565b825550505050565b600090565b610c00610bf3565b610c0b818484610bce565b505050565b5b81811015610c2f57610c24600082610bf8565b600181019050610c11565b5050565b601f821115610c7457610c4581610aff565b610c4e84610b29565b81016020851015610c5d578190505b610c71610c6985610b29565b830182610c10565b50505b505050565b600082821c905092915050565b6000610c9760001984600802610c79565b1980831691505092915050565b6000610cb08383610c86565b9150826002028217905092915050565b818103610cce575050610da6565b610cd782610ae9565b67ffffffffffffffff811115610cf057610cef61083c565b5b610cfa82546109f2565b610d05828285610c33565b6000601f831160018114610d345760008415610d22578287015490505b610d2c8582610ca4565b865550610d9f565b601f198416610d4287610b14565b9650610d4d86610aff565b60005b82811015610d7557848901548255600182019150600185019450602081019050610d50565b86831015610d925784890154610d8e601f891682610c86565b8355505b6001600288020188555050505b5050505050505b565b6000610db3826105af565b91507fffffffffffffffffffffffffffffffffffffffffffffffffffffffffffffffff8203610de557610de4610a23565b5b600182019050919050565b7f4e487b7100000000000000000000000000000000000000000000000000000000600052603160045260246000fd5b610e2882610625565b67ffffffffffffffff811115610e4157610e4061083c565b5b610e4b82546109f2565b610e56828285610c33565b600060209050601f831160018114610e895760008415610e77578287015190505b610e818582610ca4565b865550610ee9565b601f198416610e9786610aff565b60005b82811015610ebf57848901518255600182019150602085019450602081019050610e9a565b86831015610edc5784890151610ed8601f891682610c86565b8355505b6001600288020188555050505b50505050505056fea2646970667358221220d8b6da4e9178b40491ff6c2f3cc5d428ab1de7f12ab78d8938856b9fdc1255bd64736f6c63430008130033",
  "immutableReferences": {},
  "source": "// SPDX-License-Identifier: MIT\r\npragma solidity >=0.4.22 <0.9.0;\r\n\r\ncontract Invoices {\r\n    mapping(address => string[]) public invoices;\r\n\r\n    function insertInvoice(address _payAddress, string memory _contractAddress) public {\r\n        invoices[_payAddress].push(_contractAddress);\r\n    }\r\n\r\n    function getUserInvoices(address _payAddress) public view returns (string[] memory) {\r\n        return invoices[_payAddress];\r\n    }\r\n\r\n    function deleteUserInvoice(address _payAddress, uint _index) public {\r\n        uint arrayLen = invoices[_payAddress].length;\r\n        for (uint i = _index; i < arrayLen - 1; i++) {\r\n            invoices[_payAddress][i] = invoices[_payAddress][i + 1];\r\n        }\r\n        invoices[_payAddress].pop();\r\n    }\r\n}",
  "sourcePath": "C:\\Users\\ctorrubiano\\Projects\\web3-payment-app\\truffle\\contracts\\Invoices.sol",
  "compiler": {
    "name": "solc",
    "version": "0.8.19+commit.7dd6d404.Emscripten.clang"
  },
  "schemaVersion": "3.4.13",
  "updatedAt": "2023-05-01T09:59:51.651Z",
  "networkType": "ethereum",
  "devdoc": {
    "kind": "dev",
    "methods": {},
    "version": 1
  },
  "userdoc": {
    "kind": "user",
    "methods": {},
    "version": 1
  }
}