{
  "contractName": "Invoices",
  "abi": [
    {
      "inputs": [
        {
          "internalType": "address",
          "name": "",
          "type": "address"
        },
        {
          "internalType": "uint256",
          "name": "",
          "type": "uint256"
        }
      ],
      "name": "invoices",
      "outputs": [
        {
          "internalType": "string",
          "name": "contractAddress",
          "type": "string"
        },
        {
          "internalType": "bool",
          "name": "isPaid",
          "type": "bool"
        }
      ],
      "stateMutability": "view",
      "type": "function"
    },
    {
      "inputs": [
        {
          "internalType": "address",
          "name": "_payAddress",
          "type": "address"
        },
        {
          "internalType": "string",
          "name": "_contractAddress",
          "type": "string"
        }
      ],
      "name": "insertInvoice",
      "outputs": [],
      "stateMutability": "nonpayable",
      "type": "function"
    },
    {
      "inputs": [
        {
          "internalType": "address",
          "name": "_payAddress",
          "type": "address"
        }
      ],
      "name": "getUserInvoices",
      "outputs": [
        {
          "internalType": "string[]",
          "name": "",
          "type": "string[]"
        },
        {
          "internalType": "bool[]",
          "name": "",
          "type": "bool[]"
        }
      ],
      "stateMutability": "view",
      "type": "function"
    },
    {
      "inputs": [
        {
          "internalType": "address",
          "name": "_payAddress",
          "type": "address"
        },
        {
          "internalType": "uint256",
          "name": "_index",
          "type": "uint256"
        }
      ],
      "name": "setPaidInvoice",
      "outputs": [],
      "stateMutability": "nonpayable",
      "type": "function"
    }
  ],
  "bytecode": "0x608060405234801561001057600080fd5b50610e96806100206000396000f3fe608060405234801561001057600080fd5b506004361061004c5760003560e01c80630a60f08c146100515780630dad62fa1461006d57806324d3b3e21461009e578063bd743a39146100cf575b600080fd5b61006b60048036038101906100669190610602565b6100eb565b005b61008760048036038101906100829190610602565b610169565b6040516100959291906106ed565b60405180910390f35b6100b860048036038101906100b3919061071d565b61023f565b6040516100c6929190610914565b60405180910390f35b6100e960048036038101906100e49190610a80565b610499565b005b60016000808473ffffffffffffffffffffffffffffffffffffffff1673ffffffffffffffffffffffffffffffffffffffff168152602001908152602001600020828154811061013d5761013c610adc565b5b906000526020600020906002020160010160006101000a81548160ff0219169083151502179055505050565b6000602052816000526040600020818154811061018557600080fd5b9060005260206000209060020201600091509150508060000180546101a990610b3a565b80601f01602080910402602001604051908101604052809291908181526020018280546101d590610b3a565b80156102225780601f106101f757610100808354040283529160200191610222565b820191906000526020600020905b81548152906001019060200180831161020557829003601f168201915b5050505050908060010160009054906101000a900460ff16905082565b60608060008060008573ffffffffffffffffffffffffffffffffffffffff1673ffffffffffffffffffffffffffffffffffffffff16815260200190815260200160002080549050905060008167ffffffffffffffff8111156102a4576102a3610955565b5b6040519080825280602002602001820160405280156102d757816020015b60608152602001906001900390816102c25790505b50905060008267ffffffffffffffff8111156102f6576102f5610955565b5b6040519080825280602002602001820160405280156103245781602001602082028036833780820191505090505b50905060005b8381101561048a5760008060008973ffffffffffffffffffffffffffffffffffffffff1673ffffffffffffffffffffffffffffffffffffffff168152602001908152602001600020828154811061038457610383610adc565b5b906000526020600020906002020190508060000180546103a390610b3a565b80601f01602080910402602001604051908101604052809291908181526020018280546103cf90610b3a565b801561041c5780601f106103f15761010080835404028352916020019161041c565b820191906000526020600020905b8154815290600101906020018083116103ff57829003601f168201915b505050505084838151811061043457610433610adc565b5b60200260200101819052508060010160009054906101000a900460ff1683838151811061046457610463610adc565b5b60200260200101901515908115158152505050808061048290610b9a565b91505061032a565b50818194509450505050915091565b600060405180604001604052808381526020016000151581525090506000808473ffffffffffffffffffffffffffffffffffffffff1673ffffffffffffffffffffffffffffffffffffffff16815260200190815260200160002081908060018154018082558091505060019003906000526020600020906002020160009091909190915060008201518160000190816105329190610d8e565b5060208201518160010160006101000a81548160ff0219169083151502179055505050505050565b6000604051905090565b600080fd5b600080fd5b600073ffffffffffffffffffffffffffffffffffffffff82169050919050565b60006105998261056e565b9050919050565b6105a98161058e565b81146105b457600080fd5b50565b6000813590506105c6816105a0565b92915050565b6000819050919050565b6105df816105cc565b81146105ea57600080fd5b50565b6000813590506105fc816105d6565b92915050565b6000806040838503121561061957610618610564565b5b6000610627858286016105b7565b9250506020610638858286016105ed565b9150509250929050565b600081519050919050565b600082825260208201905092915050565b60005b8381101561067c578082015181840152602081019050610661565b60008484015250505050565b6000601f19601f8301169050919050565b60006106a482610642565b6106ae818561064d565b93506106be81856020860161065e565b6106c781610688565b840191505092915050565b60008115159050919050565b6106e7816106d2565b82525050565b600060408201905081810360008301526107078185610699565b905061071660208301846106de565b9392505050565b60006020828403121561073357610732610564565b5b6000610741848285016105b7565b91505092915050565b600081519050919050565b600082825260208201905092915050565b6000819050602082019050919050565b600082825260208201905092915050565b600061079282610642565b61079c8185610776565b93506107ac81856020860161065e565b6107b581610688565b840191505092915050565b60006107cc8383610787565b905092915050565b6000602082019050919050565b60006107ec8261074a565b6107f68185610755565b93508360208202850161080885610766565b8060005b85811015610844578484038952815161082585826107c0565b9450610830836107d4565b925060208a0199505060018101905061080c565b50829750879550505050505092915050565b600081519050919050565b600082825260208201905092915050565b6000819050602082019050919050565b61088b816106d2565b82525050565b600061089d8383610882565b60208301905092915050565b6000602082019050919050565b60006108c182610856565b6108cb8185610861565b93506108d683610872565b8060005b838110156109075781516108ee8882610891565b97506108f9836108a9565b9250506001810190506108da565b5085935050505092915050565b6000604082019050818103600083015261092e81856107e1565b9050818103602083015261094281846108b6565b90509392505050565b600080fd5b600080fd5b7f4e487b7100000000000000000000000000000000000000000000000000000000600052604160045260246000fd5b61098d82610688565b810181811067ffffffffffffffff821117156109ac576109ab610955565b5b80604052505050565b60006109bf61055a565b90506109cb8282610984565b919050565b600067ffffffffffffffff8211156109eb576109ea610955565b5b6109f482610688565b9050602081019050919050565b82818337600083830152505050565b6000610a23610a1e846109d0565b6109b5565b905082815260208101848484011115610a3f57610a3e610950565b5b610a4a848285610a01565b509392505050565b600082601f830112610a6757610a6661094b565b5b8135610a77848260208601610a10565b91505092915050565b60008060408385031215610a9757610a96610564565b5b6000610aa5858286016105b7565b925050602083013567ffffffffffffffff811115610ac657610ac5610569565b5b610ad285828601610a52565b9150509250929050565b7f4e487b7100000000000000000000000000000000000000000000000000000000600052603260045260246000fd5b7f4e487b7100000000000000000000000000000000000000000000000000000000600052602260045260246000fd5b60006002820490506001821680610b5257607f821691505b602082108103610b6557610b64610b0b565b5b50919050565b7f4e487b7100000000000000000000000000000000000000000000000000000000600052601160045260246000fd5b6000610ba5826105cc565b91507fffffffffffffffffffffffffffffffffffffffffffffffffffffffffffffffff8203610bd757610bd6610b6b565b5b600182019050919050565b60008190508160005260206000209050919050565b60006020601f8301049050919050565b600082821b905092915050565b600060088302610c447fffffffffffffffffffffffffffffffffffffffffffffffffffffffffffffffff82610c07565b610c4e8683610c07565b95508019841693508086168417925050509392505050565b6000819050919050565b6000610c8b610c86610c81846105cc565b610c66565b6105cc565b9050919050565b6000819050919050565b610ca583610c70565b610cb9610cb182610c92565b848454610c14565b825550505050565b600090565b610cce610cc1565b610cd9818484610c9c565b505050565b5b81811015610cfd57610cf2600082610cc6565b600181019050610cdf565b5050565b601f821115610d4257610d1381610be2565b610d1c84610bf7565b81016020851015610d2b578190505b610d3f610d3785610bf7565b830182610cde565b50505b505050565b600082821c905092915050565b6000610d6560001984600802610d47565b1980831691505092915050565b6000610d7e8383610d54565b9150826002028217905092915050565b610d9782610642565b67ffffffffffffffff811115610db057610daf610955565b5b610dba8254610b3a565b610dc5828285610d01565b600060209050601f831160018114610df85760008415610de6578287015190505b610df08582610d72565b865550610e58565b601f198416610e0686610be2565b60005b82811015610e2e57848901518255600182019150602085019450602081019050610e09565b86831015610e4b5784890151610e47601f891682610d54565b8355505b6001600288020188555050505b50505050505056fea2646970667358221220dc6bcf98dc7b68ca95a8c49e220d0b0cdc77222305f70d64b7ce3ffd58f691b764736f6c63430008130033",
  "immutableReferences": {},
  "source": "// SPDX-License-Identifier: MIT\r\npragma solidity >=0.4.22 <0.9.0;\r\n\r\ncontract Invoices {\r\n    struct Invoice {\r\n        string contractAddress;\r\n        bool isPaid;\r\n    }\r\n\r\n    mapping(address => Invoice[]) public invoices;\r\n\r\n    function insertInvoice(address _payAddress, string memory _contractAddress) public {\r\n        Invoice memory newInvoice = Invoice( _contractAddress, false);\r\n        invoices[_payAddress].push(newInvoice);\r\n    }\r\n\r\n    function getUserInvoices(address _payAddress) public view returns (string[] memory, bool[] memory) {\r\n        uint arrayLen = invoices[_payAddress].length;\r\n        string[] memory contractAddresses = new string[](arrayLen);\r\n        bool[] memory arePaids = new bool[](arrayLen);\r\n        for (uint i = 0; i < arrayLen; i++) {\r\n            Invoice storage invoice = invoices[_payAddress][i];\r\n            contractAddresses[i] = invoice.contractAddress;\r\n            arePaids[i] = invoice.isPaid;\r\n        }\r\n        return (contractAddresses, arePaids);\r\n    }\r\n\r\n    function setPaidInvoice(address _payAddress, uint _index) public {\r\n        invoices[_payAddress][_index].isPaid = true;\r\n    }\r\n}",
  "sourcePath": "C:\\Users\\ctorrubiano\\Projects\\web3-payment-app\\truffle\\contracts\\Invoices.sol",
  "compiler": {
    "name": "solc",
    "version": "0.8.19+commit.7dd6d404.Emscripten.clang"
  },
  "schemaVersion": "3.4.13",
  "updatedAt": "2023-04-30T10:43:34.899Z",
  "devdoc": {
    "kind": "dev",
    "methods": {},
    "version": 1
  },
  "userdoc": {
    "kind": "user",
    "methods": {},
    "version": 1
  }
}