{
  "contractName": "RequestMoney",
  "abi": [
    {
      "inputs": [
        {
          "internalType": "address",
          "name": "",
          "type": "address"
        },
        {
          "internalType": "uint256",
          "name": "",
          "type": "uint256"
        }
      ],
      "name": "requests",
      "outputs": [
        {
          "internalType": "address",
          "name": "answerAddress",
          "type": "address"
        },
        {
          "internalType": "address",
          "name": "payAddress",
          "type": "address"
        },
        {
          "internalType": "uint256",
          "name": "amount",
          "type": "uint256"
        },
        {
          "internalType": "string",
          "name": "concept",
          "type": "string"
        }
      ],
      "stateMutability": "view",
      "type": "function"
    },
    {
      "inputs": [
        {
          "internalType": "address",
          "name": "_answerAddress",
          "type": "address"
        },
        {
          "internalType": "address",
          "name": "_payAddress",
          "type": "address"
        },
        {
          "internalType": "uint256",
          "name": "_amount",
          "type": "uint256"
        },
        {
          "internalType": "string",
          "name": "_concept",
          "type": "string"
        }
      ],
      "name": "insertRequest",
      "outputs": [],
      "stateMutability": "nonpayable",
      "type": "function"
    },
    {
      "inputs": [
        {
          "internalType": "address",
          "name": "_payAddress",
          "type": "address"
        }
      ],
      "name": "getUserRequests",
      "outputs": [
        {
          "internalType": "address[]",
          "name": "",
          "type": "address[]"
        },
        {
          "internalType": "uint256[]",
          "name": "",
          "type": "uint256[]"
        },
        {
          "internalType": "string[]",
          "name": "",
          "type": "string[]"
        }
      ],
      "stateMutability": "view",
      "type": "function"
    },
    {
      "inputs": [
        {
          "internalType": "address",
          "name": "_payAddress",
          "type": "address"
        },
        {
          "internalType": "uint256",
          "name": "_index",
          "type": "uint256"
        }
      ],
      "name": "deleteUserRequest",
      "outputs": [],
      "stateMutability": "nonpayable",
      "type": "function"
    }
  ],
  "bytecode": "0x608060405234801561001057600080fd5b506115c6806100206000396000f3fe608060405234801561001057600080fd5b506004361061004c5760003560e01c80639ecebe2a14610051578063a433239114610084578063b337cf74146100a0578063e84605bd146100d2575b600080fd5b61006b60048036038101906100669190610a84565b6100ee565b60405161007b9493929190610b72565b60405180910390f35b61009e60048036038101906100999190610cf3565b610203565b005b6100ba60048036038101906100b59190610d76565b610373565b6040516100c99392919061102b565b60405180910390f35b6100ec60048036038101906100e79190610a84565b610681565b005b6000602052816000526040600020818154811061010a57600080fd5b9060005260206000209060040201600091509150508060000160009054906101000a900473ffffffffffffffffffffffffffffffffffffffff16908060010160009054906101000a900473ffffffffffffffffffffffffffffffffffffffff1690806002015490806003018054610180906110a6565b80601f01602080910402602001604051908101604052809291908181526020018280546101ac906110a6565b80156101f95780601f106101ce576101008083540402835291602001916101f9565b820191906000526020600020905b8154815290600101906020018083116101dc57829003601f168201915b5050505050905084565b600060405180608001604052808673ffffffffffffffffffffffffffffffffffffffff1681526020018573ffffffffffffffffffffffffffffffffffffffff1681526020018481526020018381525090506000808573ffffffffffffffffffffffffffffffffffffffff1673ffffffffffffffffffffffffffffffffffffffff16815260200190815260200160002081908060018154018082558091505060019003906000526020600020906004020160009091909190915060008201518160000160006101000a81548173ffffffffffffffffffffffffffffffffffffffff021916908373ffffffffffffffffffffffffffffffffffffffff16021790555060208201518160010160006101000a81548173ffffffffffffffffffffffffffffffffffffffff021916908373ffffffffffffffffffffffffffffffffffffffff1602179055506040820151816002015560608201518160030190816103699190611283565b5050505050505050565b606080606060008060008673ffffffffffffffffffffffffffffffffffffffff1673ffffffffffffffffffffffffffffffffffffffff16815260200190815260200160002080549050905060008167ffffffffffffffff8111156103da576103d9610bc8565b5b6040519080825280602002602001820160405280156104085781602001602082028036833780820191505090505b50905060008267ffffffffffffffff81111561042757610426610bc8565b5b6040519080825280602002602001820160405280156104555781602001602082028036833780820191505090505b50905060008367ffffffffffffffff81111561047457610473610bc8565b5b6040519080825280602002602001820160405280156104a757816020015b60608152602001906001900390816104925790505b50905060005b8481101561066c5760008060008b73ffffffffffffffffffffffffffffffffffffffff1673ffffffffffffffffffffffffffffffffffffffff168152602001908152602001600020828154811061050757610506611355565b5b906000526020600020906004020190508060000160009054906101000a900473ffffffffffffffffffffffffffffffffffffffff1685838151811061054f5761054e611355565b5b602002602001019073ffffffffffffffffffffffffffffffffffffffff16908173ffffffffffffffffffffffffffffffffffffffff168152505080600201548483815181106105a1576105a0611355565b5b6020026020010181815250508060030180546105bc906110a6565b80601f01602080910402602001604051908101604052809291908181526020018280546105e8906110a6565b80156106355780601f1061060a57610100808354040283529160200191610635565b820191906000526020600020905b81548152906001019060200180831161061857829003601f168201915b505050505083838151811061064d5761064c611355565b5b6020026020010181905250508080610664906113b3565b9150506104ad565b50828282965096509650505050509193909250565b60008060008473ffffffffffffffffffffffffffffffffffffffff1673ffffffffffffffffffffffffffffffffffffffff16815260200190815260200160002080549050905060008290505b6001826106da91906113fb565b8110156108ac576000808573ffffffffffffffffffffffffffffffffffffffff1673ffffffffffffffffffffffffffffffffffffffff16815260200190815260200160002060018261072c919061142f565b8154811061073d5761073c611355565b5b90600052602060002090600402016000808673ffffffffffffffffffffffffffffffffffffffff1673ffffffffffffffffffffffffffffffffffffffff168152602001908152602001600020828154811061079b5761079a611355565b5b90600052602060002090600402016000820160009054906101000a900473ffffffffffffffffffffffffffffffffffffffff168160000160006101000a81548173ffffffffffffffffffffffffffffffffffffffff021916908373ffffffffffffffffffffffffffffffffffffffff1602179055506001820160009054906101000a900473ffffffffffffffffffffffffffffffffffffffff168160010160006101000a81548173ffffffffffffffffffffffffffffffffffffffff021916908373ffffffffffffffffffffffffffffffffffffffff16021790555060028201548160020155600382018160030190816108959190611479565b5090505080806108a4906113b3565b9150506106cd565b506000808473ffffffffffffffffffffffffffffffffffffffff1673ffffffffffffffffffffffffffffffffffffffff1681526020019081526020016000208054806108fb576108fa611561565b5b6001900381819060005260206000209060040201600080820160006101000a81549073ffffffffffffffffffffffffffffffffffffffff02191690556001820160006101000a81549073ffffffffffffffffffffffffffffffffffffffff02191690556002820160009055600382016000610976919061097f565b50509055505050565b50805461098b906110a6565b6000825580601f1061099d57506109bc565b601f0160209004906000526020600020908101906109bb91906109bf565b5b50565b5b808211156109d85760008160009055506001016109c0565b5090565b6000604051905090565b600080fd5b600080fd5b600073ffffffffffffffffffffffffffffffffffffffff82169050919050565b6000610a1b826109f0565b9050919050565b610a2b81610a10565b8114610a3657600080fd5b50565b600081359050610a4881610a22565b92915050565b6000819050919050565b610a6181610a4e565b8114610a6c57600080fd5b50565b600081359050610a7e81610a58565b92915050565b60008060408385031215610a9b57610a9a6109e6565b5b6000610aa985828601610a39565b9250506020610aba85828601610a6f565b9150509250929050565b610acd81610a10565b82525050565b610adc81610a4e565b82525050565b600081519050919050565b600082825260208201905092915050565b60005b83811015610b1c578082015181840152602081019050610b01565b60008484015250505050565b6000601f19601f8301169050919050565b6000610b4482610ae2565b610b4e8185610aed565b9350610b5e818560208601610afe565b610b6781610b28565b840191505092915050565b6000608082019050610b876000830187610ac4565b610b946020830186610ac4565b610ba16040830185610ad3565b8181036060830152610bb38184610b39565b905095945050505050565b600080fd5b600080fd5b7f4e487b7100000000000000000000000000000000000000000000000000000000600052604160045260246000fd5b610c0082610b28565b810181811067ffffffffffffffff82111715610c1f57610c1e610bc8565b5b80604052505050565b6000610c326109dc565b9050610c3e8282610bf7565b919050565b600067ffffffffffffffff821115610c5e57610c5d610bc8565b5b610c6782610b28565b9050602081019050919050565b82818337600083830152505050565b6000610c96610c9184610c43565b610c28565b905082815260208101848484011115610cb257610cb1610bc3565b5b610cbd848285610c74565b509392505050565b600082601f830112610cda57610cd9610bbe565b5b8135610cea848260208601610c83565b91505092915050565b60008060008060808587031215610d0d57610d0c6109e6565b5b6000610d1b87828801610a39565b9450506020610d2c87828801610a39565b9350506040610d3d87828801610a6f565b925050606085013567ffffffffffffffff811115610d5e57610d5d6109eb565b5b610d6a87828801610cc5565b91505092959194509250565b600060208284031215610d8c57610d8b6109e6565b5b6000610d9a84828501610a39565b91505092915050565b600081519050919050565b600082825260208201905092915050565b6000819050602082019050919050565b610dd881610a10565b82525050565b6000610dea8383610dcf565b60208301905092915050565b6000602082019050919050565b6000610e0e82610da3565b610e188185610dae565b9350610e2383610dbf565b8060005b83811015610e54578151610e3b8882610dde565b9750610e4683610df6565b925050600181019050610e27565b5085935050505092915050565b600081519050919050565b600082825260208201905092915050565b6000819050602082019050919050565b610e9681610a4e565b82525050565b6000610ea88383610e8d565b60208301905092915050565b6000602082019050919050565b6000610ecc82610e61565b610ed68185610e6c565b9350610ee183610e7d565b8060005b83811015610f12578151610ef98882610e9c565b9750610f0483610eb4565b925050600181019050610ee5565b5085935050505092915050565b600081519050919050565b600082825260208201905092915050565b6000819050602082019050919050565b600082825260208201905092915050565b6000610f6782610ae2565b610f718185610f4b565b9350610f81818560208601610afe565b610f8a81610b28565b840191505092915050565b6000610fa18383610f5c565b905092915050565b6000602082019050919050565b6000610fc182610f1f565b610fcb8185610f2a565b935083602082028501610fdd85610f3b565b8060005b858110156110195784840389528151610ffa8582610f95565b945061100583610fa9565b925060208a01995050600181019050610fe1565b50829750879550505050505092915050565b600060608201905081810360008301526110458186610e03565b905081810360208301526110598185610ec1565b9050818103604083015261106d8184610fb6565b9050949350505050565b7f4e487b7100000000000000000000000000000000000000000000000000000000600052602260045260246000fd5b600060028204905060018216806110be57607f821691505b6020821081036110d1576110d0611077565b5b50919050565b60008190508160005260206000209050919050565b60006020601f8301049050919050565b600082821b905092915050565b6000600883026111397fffffffffffffffffffffffffffffffffffffffffffffffffffffffffffffffff826110fc565b61114386836110fc565b95508019841693508086168417925050509392505050565b6000819050919050565b600061118061117b61117684610a4e565b61115b565b610a4e565b9050919050565b6000819050919050565b61119a83611165565b6111ae6111a682611187565b848454611109565b825550505050565b600090565b6111c36111b6565b6111ce818484611191565b505050565b5b818110156111f2576111e76000826111bb565b6001810190506111d4565b5050565b601f82111561123757611208816110d7565b611211846110ec565b81016020851015611220578190505b61123461122c856110ec565b8301826111d3565b50505b505050565b600082821c905092915050565b600061125a6000198460080261123c565b1980831691505092915050565b60006112738383611249565b9150826002028217905092915050565b61128c82610ae2565b67ffffffffffffffff8111156112a5576112a4610bc8565b5b6112af82546110a6565b6112ba8282856111f6565b600060209050601f8311600181146112ed57600084156112db578287015190505b6112e58582611267565b86555061134d565b601f1984166112fb866110d7565b60005b82811015611323578489015182556001820191506020850194506020810190506112fe565b86831015611340578489015161133c601f891682611249565b8355505b6001600288020188555050505b505050505050565b7f4e487b7100000000000000000000000000000000000000000000000000000000600052603260045260246000fd5b7f4e487b7100000000000000000000000000000000000000000000000000000000600052601160045260246000fd5b60006113be82610a4e565b91507fffffffffffffffffffffffffffffffffffffffffffffffffffffffffffffffff82036113f0576113ef611384565b5b600182019050919050565b600061140682610a4e565b915061141183610a4e565b925082820390508181111561142957611428611384565b5b92915050565b600061143a82610a4e565b915061144583610a4e565b925082820190508082111561145d5761145c611384565b5b92915050565b600081549050611472816110a6565b9050919050565b81810361148757505061155f565b61149082611463565b67ffffffffffffffff8111156114a9576114a8610bc8565b5b6114b382546110a6565b6114be8282856111f6565b6000601f8311600181146114ed57600084156114db578287015490505b6114e58582611267565b865550611558565b601f1984166114fb876110d7565b9650611506866110d7565b60005b8281101561152e57848901548255600182019150600185019450602081019050611509565b8683101561154b5784890154611547601f891682611249565b8355505b6001600288020188555050505b5050505050505b565b7f4e487b7100000000000000000000000000000000000000000000000000000000600052603160045260246000fdfea2646970667358221220c3ba8bfc848a335602da3557ca4b2e208f444262aac2fa6011dcd340f388506564736f6c63430008130033",
  "immutableReferences": {},
  "source": "// SPDX-License-Identifier: MIT\r\npragma solidity >=0.4.22 <0.9.0;\r\n\r\ncontract RequestMoney {\r\n    struct Request {\r\n        address answerAddress;\r\n        address payAddress;\r\n        uint amount;\r\n        string concept;\r\n    }\r\n\r\n    mapping(address => Request[]) public requests;\r\n\r\n    function insertRequest(address _answerAddress, address _payAddress, uint _amount, string memory _concept) public {\r\n        Request memory newRequest = Request(_answerAddress, _payAddress, _amount, _concept);\r\n        requests[_payAddress].push(newRequest);\r\n    }\r\n\r\n    function getUserRequests(address _payAddress) public view returns (address[] memory, uint[] memory, string[] memory) {\r\n        uint arrayLen = requests[_payAddress].length;\r\n        address[] memory addresses = new address[](arrayLen);\r\n        uint[] memory amounts = new uint[](arrayLen);\r\n        string[] memory concepts = new string[](arrayLen);\r\n        for (uint i = 0; i < arrayLen; i++) {\r\n            Request storage request = requests[_payAddress][i];\r\n            addresses[i] = request.answerAddress;\r\n            amounts[i] = request.amount;\r\n            concepts[i] = request.concept;\r\n        }\r\n        return (addresses, amounts, concepts);\r\n    }\r\n\r\n    function deleteUserRequest(address _payAddress, uint _index) public {\r\n        uint arrayLen = requests[_payAddress].length;\r\n        for (uint i = _index; i < arrayLen - 1; i++) {\r\n            requests[_payAddress][i] = requests[_payAddress][i + 1];\r\n        }\r\n        requests[_payAddress].pop();\r\n    }\r\n}\r\n\r\n",
  "sourcePath": "C:\\Users\\ctorrubiano\\Projects\\web3-payment-app\\truffle\\contracts\\RequestMoney.sol",
  "compiler": {
    "name": "solc",
    "version": "0.8.19+commit.7dd6d404.Emscripten.clang"
  },
  "schemaVersion": "3.4.13",
  "updatedAt": "2023-04-26T16:29:57.320Z",
  "devdoc": {
    "kind": "dev",
    "methods": {},
    "version": 1
  },
  "userdoc": {
    "kind": "user",
    "methods": {},
    "version": 1
  }
}